{
  "_format": "hh-sol-artifact-1",
  "contractName": "DreamJournal",
  "sourceName": "contracts/DreamJournal.sol",
  "abi": [
    {
      "anonymous": false,
      "inputs": [
        {
          "indexed": true,
          "internalType": "uint256",
          "name": "id",
          "type": "uint256"
        },
        {
          "indexed": true,
          "internalType": "address",
          "name": "owner",
          "type": "address"
        },
        {
          "indexed": false,
          "internalType": "string",
          "name": "title",
          "type": "string"
        },
        {
          "indexed": false,
          "internalType": "uint64",
          "name": "createdAt",
          "type": "uint64"
        }
      ],
      "name": "DreamCreated",
      "type": "event"
    },
    {
      "inputs": [
        {
          "internalType": "string",
          "name": "title",
          "type": "string"
        },
        {
          "internalType": "externalEuint8[]",
          "name": "encContent",
          "type": "bytes32[]"
        },
        {
          "internalType": "bytes",
          "name": "inputProof",
          "type": "bytes"
        }
      ],
      "name": "createDream",
      "outputs": [
        {
          "internalType": "uint256",
          "name": "id",
          "type": "uint256"
        }
      ],
      "stateMutability": "nonpayable",
      "type": "function"
    },
    {
      "inputs": [
        {
          "internalType": "uint256",
          "name": "id",
          "type": "uint256"
        },
        {
          "internalType": "uint256",
          "name": "index",
          "type": "uint256"
        }
      ],
      "name": "getDreamContentByte",
      "outputs": [
        {
          "internalType": "euint8",
          "name": "encByte",
          "type": "bytes32"
        }
      ],
      "stateMutability": "view",
      "type": "function"
    },
    {
      "inputs": [
        {
          "internalType": "uint256",
          "name": "id",
          "type": "uint256"
        }
      ],
      "name": "getDreamContentLength",
      "outputs": [
        {
          "internalType": "uint256",
          "name": "length",
          "type": "uint256"
        }
      ],
      "stateMutability": "view",
      "type": "function"
    },
    {
      "inputs": [
        {
          "internalType": "address",
          "name": "user",
          "type": "address"
        }
      ],
      "name": "getDreamCount",
      "outputs": [
        {
          "internalType": "uint256",
          "name": "count",
          "type": "uint256"
        }
      ],
      "stateMutability": "view",
      "type": "function"
    },
    {
      "inputs": [
        {
          "internalType": "address",
          "name": "user",
          "type": "address"
        }
      ],
      "name": "getDreamIds",
      "outputs": [
        {
          "internalType": "uint256[]",
          "name": "ids",
          "type": "uint256[]"
        }
      ],
      "stateMutability": "view",
      "type": "function"
    },
    {
      "inputs": [
        {
          "internalType": "uint256",
          "name": "id",
          "type": "uint256"
        }
      ],
      "name": "getDreamMeta",
      "outputs": [
        {
          "internalType": "address",
          "name": "owner",
          "type": "address"
        },
        {
          "internalType": "string",
          "name": "title",
          "type": "string"
        },
        {
          "internalType": "uint64",
          "name": "createdAt",
          "type": "uint64"
        }
      ],
      "stateMutability": "view",
      "type": "function"
    },
    {
      "inputs": [],
      "name": "protocolId",
      "outputs": [
        {
          "internalType": "uint256",
          "name": "",
          "type": "uint256"
        }
      ],
      "stateMutability": "pure",
      "type": "function"
    }
  ],
  "bytecode": "0x608060405234801561000f575f5ffd5b5061018a6100ae604080516080810182525f80825260208201819052918101829052606081019190915250604080516080810182527350157cffd6bbfa2dece204a89ec419c23ef5755d815273cd3ab3bd6bcc0c0bf3e27912a92043e817b1cf69602082015273a02cda4ca3a71d7c46997716f4283aa851c2881291810191909152731364cbbf2cdf5032c47d8226a6f6fbd2afcdacac606082015290565b80517f9e7b61f58c47dc699ac88507c4f5bb9f121c03808c5676a8078fe583e464970080546001600160a01b03199081166001600160a01b039384161790915560208301517f9e7b61f58c47dc699ac88507c4f5bb9f121c03808c5676a8078fe583e46497018054831691841691909117905560408301517f9e7b61f58c47dc699ac88507c4f5bb9f121c03808c5676a8078fe583e46497028054831691841691909117905560608301517f9e7b61f58c47dc699ac88507c4f5bb9f121c03808c5676a8078fe583e46497038054909216921691909117905550565b610dba806101975f395ff3fe608060405234801561000f575f5ffd5b506004361061007a575f3560e01c8063a2f0832211610058578063a2f08322146100f0578063ca9bae3c14610103578063da1f12ab14610116578063df768a701461011e575f5ffd5b806369fc44791461007e5780637ca1e943146100a75780639c0f76c3146100c8575b5f5ffd5b61009161008c36600461095d565b610140565b60405161009e9190610983565b60405180910390f35b6100ba6100b53660046109c5565b6101a9565b60405190815260200161009e565b6100ba6100d636600461095d565b6001600160a01b03165f9081526001602052604090205490565b6100ba6100fe3660046109e5565b61024e565b6100ba610111366004610a41565b6102d0565b6127116100ba565b61013161012c3660046109e5565b6105f3565b60405161009e93929190610b40565b6001600160a01b0381165f9081526001602090815260409182902080548351818402810184019094528084526060939283018282801561019d57602002820191905f5260205f20905b815481526020019060010190808311610189575b50505050509050919050565b5f5f5f84815481106101bd576101bd610b7b565b905f5260205f2090600402019050806002018054905083106102265760405162461bcd60e51b815260206004820152601360248201527f496e646578206f7574206f6620626f756e64730000000000000000000000000060448201526064015b60405180910390fd5b80600201838154811061023b5761023b610b7b565b905f5260205f2001549150505b92915050565b5f5f5f838154811061026257610262610b7b565b905f5260205f20906004020190505f8160020180549050116102c65760405162461bcd60e51b815260206004820152601460248201527f447265616d20646f6573206e6f74206578697374000000000000000000000000604482015260640161021d565b6002015492915050565b5f8361031e5760405162461bcd60e51b815260206004820152600d60248201527f456d70747920636f6e74656e7400000000000000000000000000000000000000604482015260640161021d565b61035a60405180608001604052805f6001600160a01b0316815260200160608152602001606081526020015f67ffffffffffffffff1681525090565b338152604080516020601f8a018190048102820181019092528881529089908990819084018382808284375f92019190915250505050602082015267ffffffffffffffff428116606083015285908111156103b7576103b7610b8f565b6040519080825280602002602001820160405280156103e0578160200160208202803683370190505b5060408201525f5b8581101561048b575f61044888888481811061040657610406610b7b565b9050602002013587878080601f0160208091040260200160405190810160405280939291908181526020018383808284375f9201919091525061072b92505050565b9050808360400151838151811061046157610461610b7b565b6020026020010181815250506104768161073f565b50610481813361074e565b50506001016103e8565b505f805460018101825590805281517f290decd9548b62a8d60345a988386fc84ba6bc95484008f6362f93160ef3e563600490920291820180547fffffffffffffffffffffffff0000000000000000000000000000000000000000166001600160a01b03909216919091178155602083015183927f290decd9548b62a8d60345a988386fc84ba6bc95484008f6362f93160ef3e564019061052c9082610c27565b5060408201518051610548916002840191602090910190610909565b50606091909101516003909101805467ffffffffffffffff191667ffffffffffffffff9092169190911790555f5461058290600190610ce2565b335f81815260016020818152604080842080549384018155845292200183905560608401519051929450909184917f81163e6dd1de57156ef637f7cfb78416f9918e1421b63731be32939bd8decbc3916105e0918d918d9190610d01565b60405180910390a3509695505050505050565b5f60605f5f5f858154811061060a5761060a610b7b565b905f5260205f20906004020190505f81600201805490501161066e5760405162461bcd60e51b815260206004820152601460248201527f447265616d20646f6573206e6f74206578697374000000000000000000000000604482015260640161021d565b805460038201546001830180546001600160a01b0390931692909167ffffffffffffffff1690829061069f90610ba3565b80601f01602080910402602001604051908101604052809291908181526020018280546106cb90610ba3565b80156107165780601f106106ed57610100808354040283529160200191610716565b820191905f5260205f20905b8154815290600101906020018083116106f957829003601f168201915b50505050509150935093509350509193909250565b5f61073883836002610760565b9392505050565b5f61074a8230610880565b5090565b5f6107598383610880565b5090919050565b7f9e7b61f58c47dc699ac88507c4f5bb9f121c03808c5676a8078fe583e46497015460405163196d0b9b60e01b81525f917f9e7b61f58c47dc699ac88507c4f5bb9f121c03808c5676a8078fe583e4649700916001600160a01b039091169063196d0b9b906107d9908890339089908990600401610d42565b6020604051808303815f875af11580156107f5573d5f5f3e3d5ffd5b505050506040513d601f19601f820116820180604052508101906108199190610d96565b8154604051630f8e573b60e21b8152600481018390523360248201529193506001600160a01b031690633e395cec906044015f604051808303815f87803b158015610862575f5ffd5b505af1158015610874573d5f5f3e3d5ffd5b50505050509392505050565b5f7f9e7b61f58c47dc699ac88507c4f5bb9f121c03808c5676a8078fe583e46497008054604051635ca4b5b160e11b8152600481018690526001600160a01b03858116602483015292935091169063b9496b62906044015f604051808303815f87803b1580156108ee575f5ffd5b505af1158015610900573d5f5f3e3d5ffd5b50505050505050565b828054828255905f5260205f20908101928215610942579160200282015b82811115610942578251825591602001919060010190610927565b5061074a9291505b8082111561074a575f815560010161094a565b5f6020828403121561096d575f5ffd5b81356001600160a01b0381168114610738575f5ffd5b602080825282518282018190525f918401906040840190835b818110156109ba57835183526020938401939092019160010161099c565b509095945050505050565b5f5f604083850312156109d6575f5ffd5b50508035926020909101359150565b5f602082840312156109f5575f5ffd5b5035919050565b5f5f83601f840112610a0c575f5ffd5b50813567ffffffffffffffff811115610a23575f5ffd5b602083019150836020828501011115610a3a575f5ffd5b9250929050565b5f5f5f5f5f5f60608789031215610a56575f5ffd5b863567ffffffffffffffff811115610a6c575f5ffd5b610a7889828a016109fc565b909750955050602087013567ffffffffffffffff811115610a97575f5ffd5b8701601f81018913610aa7575f5ffd5b803567ffffffffffffffff811115610abd575f5ffd5b8960208260051b8401011115610ad1575f5ffd5b60209190910194509250604087013567ffffffffffffffff811115610af4575f5ffd5b610b0089828a016109fc565b979a9699509497509295939492505050565b5f81518084528060208401602086015e5f602082860101526020601f19601f83011685010191505092915050565b6001600160a01b0384168152606060208201525f610b616060830185610b12565b905067ffffffffffffffff83166040830152949350505050565b634e487b7160e01b5f52603260045260245ffd5b634e487b7160e01b5f52604160045260245ffd5b600181811c90821680610bb757607f821691505b602082108103610bd557634e487b7160e01b5f52602260045260245ffd5b50919050565b601f821115610c2257805f5260205f20601f840160051c81016020851015610c005750805b601f840160051c820191505b81811015610c1f575f8155600101610c0c565b50505b505050565b815167ffffffffffffffff811115610c4157610c41610b8f565b610c5581610c4f8454610ba3565b84610bdb565b6020601f821160018114610c87575f8315610c705750848201515b5f19600385901b1c1916600184901b178455610c1f565b5f84815260208120601f198516915b82811015610cb65787850151825560209485019460019092019101610c96565b5084821015610cd357868401515f19600387901b60f8161c191681555b50505050600190811b01905550565b8181038181111561024857634e487b7160e01b5f52601160045260245ffd5b60408152826040820152828460608301375f606084830101525f6060601f19601f860116830101905067ffffffffffffffff83166020830152949350505050565b8481526001600160a01b0384166020820152608060408201525f610d696080830185610b12565b905060548310610d8757634e487b7160e01b5f52602160045260245ffd5b82606083015295945050505050565b5f60208284031215610da6575f5ffd5b505191905056fea164736f6c634300081b000a",
  "linkReferences": {},
  "deployedLinkReferences": {}
}